:020000040800F2
:10000000F0080020DD610008E5610008E7610008F4
:10001000E9610008EB610008ED61000800000000E4
:10002000000000000000000000000000EF61000878
:10003000F161000800000000F36100084D1A00089B
:10004000F7610008F7610008F7610008F761000830
:10005000F7610008F7610008472100081B2200082B
:10006000DD200008B121000873200008ED2C0008F5
:100070009B320008872D000819320008F76100083C
:10008000033200084D2D0008F7610008F7610008F1
:10009000F7610008F7610008F761000859130008CC
:1000A000D5370008F7610008F76100083937000804
:1000B0003B3700083D3700083F370008F52D0008A2
:1000C000092E0008FF2D00081F2E0008F761000808
:1000D000F7610008F7610008ED320008633300089B
:1000E000BF130008F7610008F7610008F761000816
:1000F000F7610008F761000847370008BB2D0008CA
:10010000F7610008F761000841370008F76100084F
:10011000F7610008F7610008433700084537000819
:10012000F7610008F7610008F7610008F76100084F
:10013000F7610008F7610008F7610008F76100083F
:10014000F7610008F7610008F7610008F76100082F
:10015000F7610008F7610008F7610008F76100081F
:10016000F7610008F7610008F7610008F76100080F
:10017000F7610008F7610008F7610008F7610008FF
:10018000F7610008F7610008DFF80CD006F016FEF2
:10019000004800479D010008F008002010B501F05C
:1001A0007FFC06F0E7F800F0F0F801F069FE02F0DD
:1001B00050FA01F075FB01F0D6FA01F0DDFB01F019
:1001C000A0F803F009F900F036FC1849087001F0B6
:1001D000B9F91749087015480078012803D115A00E
:1001E00006F03CFE02E016A006F038FE01E000F04A
:1001F00011FD164800780028F9D002F01BFA002102
:10020000084602F0F3F912A006F028FE00210220B1
:1002100002F0ECF912A006F021FE4FF4FA7001F0A2
:10022000B2FC02F007FA002010BD0000010000201F
:1002300002000020494D55204F4B202000000000B7
:10024000494D55204661696C000000000000002007
:1002500020202020202042616C6150692000000095
:100260005368757474696E6720446F776E2E2E2EF6
:10027000200000002DE9F0470025002407E0284673
:10028000691C8DB2924931F81000204484B20A2DC5
:10029000F5DB0A2094FBF0F084B2204606F033FB35
:1002A00082468C4906F028F981468B4906F024F9EC
:1002B0008046894906F020F90746884906F0C4F8C7
:1002C00006463046BDE8F0872DE9F04100240A25B6
:1002D00000208349088002E0FFF7CCFF044600219C
:1002E000204606F085FBF7D07E49204606F080FBCD
:1002F00002D80020BDE8F08126E07948008806F0A9
:1003000002FB0746784906F0F7F80646214606F054
:100310006FFB05D272480088401C7149088013E0C9
:100320006F48008806F0EFFA0746704906F0E4F8D7
:100330000646214606F066FB05D269480088401E45
:100340006749088000E000256548008806F0DBFA70
:100350000746654906F0D0F80646214606F048FBF8
:100360000CD35F48008806F0CEFA07465F4906F0D6
:10037000C3F80646214606F045FB03D22800A5F146
:100380000105BAD156480088B4E700B59BB00121F9
:10039000574804F03FFC0121880204F07FFC03F081
:1003A000D9FA544803F00EFD4FF080600290524895
:1003B000039047480490002005900A2006900020F2
:1003C00007904FF4806008904000099080000A90E8
:1003D00040110B9040020C9000200D9001200E90D7
:1003E00000200F90109002A9424803F08DFD0121DA
:1003F000404803F0C3FD0120009003208DF8040065
:1004000000208DF8070069463C4803F0A9FF002052
:10041000119012901390149011A803F0D5FA0020B7
:1004200015908DF8580001208DF859000020179084
:1004300019900A208DF8680015A92F484C3803F050
:1004400094FA002301220A212B484C3803F018FBB0
:10045000012129484C3803F0BDFB012126484C38C6
:1004600003F0ADFB012124484C3803F0C9FA2248BF
:100470004C3803F061FBC82001F085FBFFF724FF37
:100480001BB000BD2DE9F05FFFF7F4FE8246144873
:100490000088D0B11248008806F035FA834606F08D
:1004A00064FA80464FF06632154B06F042F9044676
:1004B0000D46504606F059FA064622462B4606F0EF
:1004C00067FA02D80020BDE8F09F0120FBE700009A
:1004D0003C010020703DAE3BD7A3803FCDCC4C3ECD
:1004E000060000200000A040000090400000604096
:1004F00004004000286402404C22014000080240F1
:1005000066660A4030B585B004460D460494012065
:1005100004AACDE900203C231A460021CDE902506F
:10052000CB4802F02CFACA4802F00EFA05B030BDF2
:1005300070B586B004460D4616460594012005A9FF
:100540003C231A46CDE90256CDE900100321C048EC
:1005500002F015FABE4802F0F7F906B070BD2DE9B9
:10056000FC4105460E46174600200090002401225B
:100570006946FFF7DDFF012802D00020BDE8FC81BD
:10058000A5F58070FF380DD09DF8000000F09F00A9
:10059000009068079DF8001041EA10600090E0B2FA
:1005A00040F06004A6F58070FF380DD09DF8000083
:1005B00000F0E3000090B0069DF8001041EA1060E2
:1005C0000090E0B240F01C04A7F58070FF380CD01A
:1005D0009DF8000000F0FC000090F8B29DF80010BB
:1005E00008430090E0B240F0030469460020FFF7A2
:1005F00089FF012801D00020C0E7012201A90020C5
:10060000FFF796FF012801D00020B7E79DF804000E
:10061000904908709DF8040020409DF80010884221
:1006200001D00020AAE70120A8E77CB504460020FD
:1006300000900025012269461046FFF779FF012846
:1006400001D000207CBDA4F58070FF380DD09DF84E
:10065000000000F01F00009060079DF8001041EAC4
:1006600010600090E8B240F0E00569460120FFF715
:1006700049FF012801D00020E4E7012201A910462A
:10068000FFF756FF012801D00020DBE79DF80400AA
:10069000704948709DF8040028409DF80010884279
:1006A00001D00020CEE70120CCE77CB504460D4602
:1006B000002000900026012269460220FFF738FF43
:1006C000012801D000207CBDA4F58070FF380DD03A
:1006D0009DF8000000F07F000090E0079DF80010FA
:1006E00041EA10600090F0B240F08006A5F58070FD
:1006F000FF380CD09DF8000000F0FC000090E8B23C
:100700009DF8001008430090F0B240F003066946DF
:100710000220FFF7F7FE012801D00020D3E70122D5
:1007200001A90220FFF704FF012801D00020CAE739
:100730009DF80400474988709DF8040030409DF8FA
:100740000010884201D00020BDE70120BBE710B5B2
:10075000044640F2FF1221461046FFF700FF10BD8D
:1007600010B5044640F2FF1211462046FFF7F7FE8F
:1007700010BD10B50446224640F2FF110846FFF7AF
:10078000EEFE10BD10B504462046FFF74EFF10BD2B
:1007900010B50446214640F2FF10FFF786FF10BD5A
:1007A00010B5044640F2FF112046FFF77EFF10BD52
:1007B00010B50446032221460A20FFF7B9FE01289E
:1007C00001D0002010BD0120FCE708B56846FFF706
:1007D000EFFF01280FD19DF80000482809D19DF8AE
:1007E0000100342805D19DF80200332801D10120F1
:1007F00008BD0020FCE70020FAE71CB504460622ED
:1008000069460320FFF794FE01281FD19DF80100DF
:100810009DF8001040EA012000B20F4908832080B3
:100820009DF803009DF8021040EA012000B20A4939
:10083000488360809DF805009DF8041040EA01207F
:1008400000B205498883A08001201CBD0020FCE780
:100850008002002050010020C8040020014600BF93
:10086000FE4A01FB02F000E0401E0028FCD1704768
:100870002DE9F04F8FB081460C46B4F9000006F028
:1008800039F8019006F071F8074600224FF08043D6
:1008900007F0A0F9CDE90401B4F9040006F02AF844
:1008A000019006F062F8074600224FF0804307F0FF
:1008B00091F9CDE90201DDE9042305F093FE054637
:1008C00007F078FECDE90801B4F9020006F012F84D
:1008D000054606F04AF8CDE90601DDE9082305F0F2
:1008E0009AFFCDE90A0106F0A3FF8246DC4ADD4B00
:1008F00005F01FFFCDE90C0106F05EF8DA4908604B
:10090000B4F9020005F0F6FF019006F02EF8054656
:1009100000224FF0804307F05DF982468B46B4F920
:10092000040005F0E7FF019006F01FF805460022DD
:100930004FF0804307F04EF952465B46CDE9020185
:1009400005F050FECDE9040107F034FE0746884665
:10095000B4F90010484205F0CDFF054606F005F851
:100960003A464346CDE9060105F055FFCDE90801B9
:1009700006F05EFFBA4ABB4BCDE90A0105F0D9FE8D
:10098000CDE90C0106F018F8B74948600A4607CAD5
:1009900089E807000FB0BDE8F08F10B500F0C8F986
:1009A000012824D101220021084600F0AFFA0128D5
:1009B00001D0002010BD032000F028FA012801D04A
:1009C0000020F7E7032000F061FA012801D00020A1
:1009D000F0E7012000F0DBF9012801D00020E9E771
:1009E000002000F0B3F9012801D00020E2E7012047
:1009F000E0E710B5FFF7E9FE012801D0002010BDA7
:100A0000002204210320FFF7AAFD012801D00020C5
:100A1000F5E70720FFF709FE012801D00020EEE7E7
:100A2000002140F2FF10FFF740FE012801D0002016
:100A3000E5E70120E3E71CB50121022004F0EAF814
:100A40004FF44070009002208DF8040003208DF8D0
:100A5000050001208DF8060000208DF8070069468A
:100A6000824803F07DFC04220821804803F003FD46
:100A7000042209217D4803F0FEFC01217C4880F816
:100A80003010490641637B4981637B49C163112171
:100A900080F8311001207649087440064861754895
:100AA000903888617548C8610B2048746420A1F8AB
:100AB0004E007348086473496D4801F038FE6420A5
:100AC000FFF7CCFEFFF795FF012801D000201CBDE9
:100AD000FFF763FF012801D00020F8E70120F6E7C7
:100AE0002DE9F04F91B005460C46B4F9000005F031
:100AF00001FF8046644905F035FD07464FF080410F
:100B000005F0FAFC0646B4F9020005F0F3FE804653
:100B10005D4905F027FD07464FF0804105F0ECFCEC
:100B20008146B4F9040005F0E5FE8046564905F01B
:100B300019FD07464FF0804105F0DEFC8246514624
:100B4000504605F0D9FC49460290484605F0D4FCD1
:100B50000190029905F078FC834607F051FD03905F
:100B600005F003FF07468846304605F0FEFE3A468C
:100B70004346CDE9040106F06DFFCDE9060105F01D
:100B80001BFF099005F0F1FE404A364B1A33CDE9C0
:100B90000A0105F0CEFDCDE90C0105F00DFF0E9028
:100BA0005146504605F0A8FC31460290484605F0F3
:100BB000A3FC0190029905F047FC834607F020FD55
:100BC000039005F0D2FE07468846484605F0CDFE64
:100BD0003A464346CDE9040106F03CFFCDE9060163
:100BE00005F0EAFE099005F0C0FE284A1D4B1A33B5
:100BF000CDE90A0105F09DFDCDE90C0105F0DCFE13
:100C00000F90002010900EA807C885E8070011B0CB
:100C1000BDE8F08F10B58CB008A90AA800F060FA02
:100C200003A8FFF7EAFD08A96846FFF759FF9DE80A
:100C3000070005AB07C31649059805F05DFC04469F
:100C400005F066FE00B21349C8831149069805F005
:100C500053FC044605F05CFE00B21DE0409002002B
:100C6000F6285C8FC2A54C406001002000040240C1
:100C700080020020A0600240008020202080001020
:100C800000540040801A060000FEFF46E3A9471A00
:100C90000000C842C8040020064908840649079895
:100CA00005F02AFC044605F033FE00B201494884F1
:100CB0000CB010BDC80400200000C84230B585B09B
:100CC00004460D460494012004AACDE90020D02357
:100CD0001A460021CDE90250F94801F050FEF848CB
:100CE00001F032FE05B030BD70B586B004460D4649
:100CF00016460594012005A9D0231A46CDE90256CF
:100D0000CDE900100321EE4801F039FEEC4801F076
:100D10001BFE06B070BD10B50446012221467520A9
:100D2000FFF7E2FF012801D0002010BD0120FCE701
:100D300008B56846FFF7EFFF012805D19DF80000D0
:100D4000682801D1012008BD0020FCE701B582B070
:100D500002A91920FFF7B2FF012801D000200EBD23
:100D6000012201A91920FFF7BFFF012801D00020AF
:100D7000F5E79DF80400D34948769DF804009DF8F6
:100D80000810884201D00020E9E70120E7E77CB5A0
:100D90000446002000900025012269461A20FFF732
:100DA000A3FF012801D000207CBDA4F58070FF388E
:100DB0000CD09DF8000000F0F8000090E0B29DF823
:100DC000001008430090E8B240F0070569461A2079
:100DD000FFF774FF012801D00020E5E7012201A9F7
:100DE0001A20FFF781FF012801D00020DCE79DF8E1
:100DF0000400B44988769DF8040028409DF800104E
:100E0000884201D00020CFE70120CDE77CB5044621
:100E1000002000900025012269461B20FFF764FF97
:100E2000012801D000207CBDA4F58070FF380DD0D2
:100E30009DF8000000F0E7000090E0069DF800102B
:100E400041EA10600090E8B240F0180569461B20A6
:100E5000FFF734FF012801D00020E4E7012201A9B7
:100E60001B20FFF741FF012801D00020DBE79DF8A0
:100E700004009449C8769DF8040028409DF80010AD
:100E8000884201D00020CEE70120CCE77CB50446A3
:100E9000002000900025012269461C20FFF724FF56
:100EA000012801D000207CBDA4F58070FF380DD052
:100EB0009DF8000000F0E7000090E0069DF80010AB
:100EC00041EA10600090E8B240F0180569461C2025
:100ED000FFF7F4FE012801D00020E4E7012201A978
:100EE0001C20FFF701FF012801D00020DBE79DF85F
:100EF0000400744908779DF8040028409DF800100C
:100F0000884201D00020CEE70120CCE7F8B50446A6
:100F10000D46164601226C496B20FFF7E5FE0128BD
:100F200001D00020F8BDA4F58070FF3811D06648CC
:100F3000007800F0BF0064490870A007097841EA12
:100F40001060614908706148007840F040005F49D6
:100F50000870A5F58070FF3811D05B48007800F06C
:100F60007F0059490870E806097841EA106056493F
:100F700008705648007840F0800054490870A6F583
:100F80008070FF3810D05048007800F0F8004E49CB
:100F90000870F0B2097808434B4908704B48007854
:100FA00040F007004949087047496B20FFF786FE6B
:100FB000012801D00020B5E7012269466B20FFF728
:100FC00093FE012801D00020ACE79DF800003D49C8
:100FD00081F86B009DF800003C49097808403A49C7
:100FE0000978884201D000209CE701209AE72DE98A
:100FF000FF4704460D4616460E2269463B20FFF782
:1010000073FE012858D19DF801009DF8001040EAB8
:10101000012000B22E49488228809DF803009DF8E7
:10102000021040EA012000B22949888268809DF8B8
:1010300005009DF8041040EA012000B22449C8824E
:10104000A8809DF807009DF8061040EA012007B22D
:101050009DF809009DF8081040EA012000B21C49E3
:10106000888120809DF80B009DF80A1040EA01203D
:1010700000B21749C88160809DF80D009DF80C10E2
:1010800040EA012000B212490882A080384605F0EB
:1010900031FC81460F4905F065FA80460E4905F09E
:1010A000D3F930600D49306805F026FA804605F026
:1010B0002FFC00B206494881012004B0BDE8F0874A
:1010C000800200206C0100200900002008000020A0
:1010D000C80400200000AA43B81E12420000C84203
:1010E0002DE9FF4704460D460E2269463B20FFF7D7
:1010F000FBFD012858D19DF801009DF8001040EA41
:10110000012000B22A49488228809DF803009DF8FA
:10111000021040EA012000B22549888268809DF8CB
:1011200005009DF8041040EA012000B22049C88261
:10113000A8809DF807009DF8061040EA012006B23D
:101140009DF809009DF8081040EA012000B21849F6
:10115000888120809DF80B009DF80A1040EA01204C
:1011600000B21349C88160809DF80D009DF80C10F5
:1011700040EA012000B20E490882A080304605F006
:10118000B9FB81460B4905F0EDF980460A4905F0A7
:101190005BF907460949384605F0AEF9804605F087
:1011A000B7FB00B202494881012004B0BDE8F087D6
:1011B000C80400200000AA43B81E12420000C84222
:1011C00030B5B0480A23002406C8A1FB030502FB82
:1011D000035201FB042130BD70B50446FFF7F0FF58
:1011E00005460E4600BFFFF7EBFF421B61EB060111
:1011F000121B71F10001F6D270BD00B585B001215E
:10120000102003F007FD00208DF8090001208DF863
:10121000080002208DF80B0000208DF80A008020C5
:10122000019001A9984803F09BF84FF48040019089
:1012300001A9954803F094F800208DF809008DF875
:10124000080002208DF80B0000208DF80A004FF4F2
:101250008070019001A98C4803F082F84FF400409F
:10126000019001A9884803F07BF80121880303F06D
:1012700015FD0821042004F079FF0F21042004F05B
:1012800075FF00208DF8100010208DF8110001204E
:101290008DF812000002039003A802F073FF4FF4D0
:1012A0000040039003A802F06DFF10208DF80100AC
:1012B0008DF8020001208DF8030017208DF8000042
:1012C000684602F0DAFA28208DF80000684602F03D
:1012D000D4FA05B000BD10B5A8224FF6FF716B48D7
:1012E00002F0D4F80A220021684802F0A4F90A2288
:1012F0000421664802F09FF90121644803F0FEFED4
:1013000010BD10B5FFF779FFFFF7E5FF10BD5D4891
:10131000D0E900305A1C40F100005A49C1E90020D0
:10132000704710B58021584803F096F84FF480417B
:10133000554803F091F80A20FFF74EFF80215248EC
:1013400003F08CF84FF480414F4803F087F80021F8
:101350004C4A1160516010BD10B54FF4807002F01E
:1013600077FF58B34FF48071474803F05BF820B122
:10137000FFF726FF464908601CE0FFF721FF4449BC
:101380000968401A424948600846406840B14868C8
:1013900005F0B9FA04463F4905F0E4F83C49886095
:1013A0003B4988683C4905F0A7F8044605F0C9FAAE
:1013B0003A49C8804FF4807002F05BFF10BD10B551
:1013C0004FF4004002F044FF58B34FF400412E4860
:1013D00003F028F820B1FFF7F3FE314908601CE064
:1013E000FFF7EEFE2E490968401A2D49486008466D
:1013F000406840B1486805F086FA0446254905F082
:10140000B1F82749886026498868234905F074F8AF
:10141000044605F096FA214908814FF4004002F095
:1014200028FF10BD1CB500208DF806004FF4807019
:101430000090684602F0A6FE4FF400400090684617
:1014400002F0A0FE0021114803F058FE1CBD1CB59F
:1014500000208DF8040010208DF8050001208DF883
:10146000060000020090684602F08CFE4FF4004037
:101470000090684602F086FE0121044803F03EFE1B
:101480001CBD000010000020001002400040014080
:10149000E40100200000684200002041C804002050
:1014A000F0010020F0B585B004460D461646C4F3A1
:1014B00006208DF81000E0B28DF811007D4801F093
:1014C00043FA0746012F02D0002005B0F0BD0220EC
:1014D00004A9A0231A46CDE90256CDE90010002147
:1014E000744801F04CFA0746012F01D00020ECE7C8
:1014F0000120EAE7F0B585B004460D461646C4F370
:1015000006208DF81000E0B28DF81100694801F056
:101510001BFA0746012F02D0002005B0F0BD0220C3
:1015200004A9A123A022CDE90256CDE90010032190
:10153000604801F024FA0746012F01D00020ECE7B3
:101540000120EAE71CB50121022003F063FB4FF400
:101550004060009002208DF8040003208DF8050003
:1015600001208DF8060000208DF8070069465248DA
:1015700002F0F6FE04220A214F4802F07CFF04220A
:101580000B214D4802F077FF64204A49A1F84E0034
:101590004A4808640121474880F830104FF06061E4
:1015A0004163474981634749C1632F2180F8311066
:1015B0000120404908744FF0606048614048783825
:1015C00088614148C8610D2048744049394801F09C
:1015D000AEF801201CBD7CB500200190009035487C
:1015E00001F0B2F90546012D01D000207CBD44E098
:1015F0003049086C012103F024F835492D4801F0E9
:1016000019FC0546012D01D00020EFE729490022F1
:10161000086CA02103F02DF800F092FA04460FE0C8
:101620002448006C808A01902248B0F84E6032460F
:1016300000232046194600F087FA08B10020D5E7BC
:10164000BDF8040040F202410842E9D0BDF80400B0
:1016500010F0020F09D01748006C008B1549086C78
:10166000012102F0FAFF0120C0E71249086C194974
:1016700003F01EF90098401C009000980A28B7D388
:101680000020B3E770B505460C464FF6FF7101EA3E
:10169000841040222946FFF72DFF70BD70B5054626
:1016A0000C464FF6FF7101EA841040222946FFF7ED
:1016B000F9FE70BD200300200004024000580040E5
:1016C000B86002400080002800802010801A0600C8
:1016D000010003000004001010B56348006863496E
:1016E00008606348006863490860634803F0CAFC07
:1016F0005D490860614803F0C5FC5D4908605A48CF
:1017000000685A490968401A5D49086058480068ED
:1017100058490968401A5B4908605B4800685849A5
:1017200009680844584908605848006855490968DC
:1017300008445649086010BD10B572B600204B49E8
:1017400008604C4908605049086050490860002111
:10175000494803F093FC0021484803F08FFCFFF751
:10176000BBFF62B610BD1CB501210C2003F085FA49
:101770000121092003F04EFA684602F039FE0220EA
:101780008DF8040001208DF80700000300906946E1
:101790003F4802F0E5FD4FF40050009069463C4898
:1017A00002F0DEFD0120009069463A4802F0D8FDC3
:1017B000022000906946374802F0D2FD02220C2137
:1017C000334802F058FE02220D21314802F053FE48
:1017D000022200212F4802F04EFE022201212D4854
:1017E00002F049FE00231A460321234804F071F950
:1017F00000231A460321214804F06BF94FF6FF71CC
:101800001D4803F03DFC4FF6FF711C4803F038FC07
:101810000121194803F072FC0121184803F06EFC05
:10182000FFF78AFF1CBD70B51648006805F062F826
:101830000646194904F060FE0546184904F092FE78
:101840000446204670BD70B50D48006805F052F89A
:101850000646114904F050FE0546104904F082FE88
:101860000446204670BD0000300000202800002003
:10187000340000202C000020000C00400008004034
:10188000180000201C000020200000202400002060
:10189000000C02400000024000007A440070314613
:1018A0001CB50121042003F0B5F94FF470700090CD
:1018B00002208DF8040003208DF8050000208DF82B
:1018C00006008DF807006946294802F049FD02220A
:1018D0000621274802F0CFFD02220721244802F00A
:1018E000CAFD02220821224802F0C5FD0222092178
:1018F0001F4802F0C0FDA82232211E4801F0C6FD9B
:1019000000220C211B4801F044FE0121194803F07C
:10191000F5FB1CBD70B504460D46012C08D12946C7
:10192000144803F050FD0021124803F04EFD07E07B
:101930000021104803F047FD29460E4803F045FDFD
:1019400070BD70B504460D46012C08D129460948E2
:1019500003F03DFD0021074803F03BFD07E00021B7
:10196000044803F034FD2946024803F032FD70BDFF
:1019700000080240000400401CB5684602F038FD33
:101980000121084603F046F90320009002208DF85B
:10199000040003208DF8050000208DF806008DF866
:1019A00007006946154802F0DBFC022200211348BB
:1019B00002F061FD02220121104802F05CFD0022CC
:1019C00044F2A0110E4801F061FD42F2D002042160
:1019D0000B4801F0DEFD0121094803F08FFB1CBD1F
:1019E00010B504462146064803F0EDFC10BD10B5C5
:1019F00004462146024803F0E8FC10BD0000024006
:101A0000000C004030B52249481EB0F1807F00D361
:101A10001BE0481E4FF0E022506150170F220028B3
:101A200007DA13071D0E1B4B00F00F04241F1D5572
:101A300003E013071C0E184B1C5400BF00204FF08E
:101A4000E02290610720106100BF30BD134801689B
:101A50004068002359405840014308D00F480268AD
:101A60004068521E60F100000C490A6048607047EF
:101A700010B50021094A1060516000BF07490A688B
:101A800049680024624061400A43F7D110BD00005C
:101A90004090020018ED00E000E400E03800002073
:101AA00010B544F2A0124FF6FF714D4801F0EEFC64
:101AB00042F2107200214A4801F0BDFD0A220421C1
:101AC000474801F0B8FD4FF4FA720821444801F08C
:101AD000B2FD0121424803F011FB10BD41480078DE
:101AE00038B3404890F907003B2806DA3D48C079F2
:101AF000401C40B23B49C87121E03A4890F90600C9
:101B00003B2808DA00203749C87108468079401C14
:101B100040B2887113E0334890F905003B2809DA98
:101B200000203049C871887108464079401C40B295
:101B3000487104E000202B49C871887148717047D2
:101B40002948006800217047F0B504460D46FFF7AC
:101B5000F7FF06460F46A01B75EB070008D2A11839
:101B600045EB0300711A77EB00000AD30120F0BDAA
:101B7000A11845EB0300711A77EB000001D3012097
:101B8000F5E70020F3E770B50446FFF7D9FF0546F7
:101B90000E4600BF2246002328463146FFF7D4FFF9
:101BA0000028F7D070BD00B5FFF798FF00BD10B555
:101BB0000D480068401C0C490860FFF78DFD10BD02
:101BC00010B5FEF75FFC18B1142000F05FF905E0D6
:101BD000002000F0F7F801200449087010BD000053
:101BE00000040140FC0100204C0000200000002007
:101BF00000B585B00121082003F00CF803208DF812
:101C0000090000208DF8080001208DF80B0010203D
:101C1000019001A9FE4802F0A3FB0420019001A954
:101C2000FB4802F09DFB0120019001A9F84802F059
:101C300097FB0820019001A9F54802F091FB0220D2
:101C4000019001A9F24802F08BFB0121880303F007
:101C500025F80421032004F089FA0221032004F06E
:101C600085FA0021032004F081FA0321084604F0DC
:101C70007DFA0121032004F079FA00208DF810008C
:101C800010208DF8110001208DF812001020039013
:101C900003A802F077FA0420039003A802F072FA76
:101CA0000120039003A802F06DFA0820039003A816
:101CB00002F068FA0220039003A802F063FA0F20F2
:101CC0008DF801008DF8020001208DF803000A2034
:101CD0008DF80000684601F0D0FD08208DF8000066
:101CE000684601F0CAFD06208DF80000684601F044
:101CF000C4FD09208DF80000684601F0BEFD0720F4
:101D00008DF80000684601F0B8FD0120C149087057
:101D1000C1490870C1490870C1490870C1490870BB
:101D200005B000BD2DE9F84F07460C4615461E4686
:101D3000384604F0DFFD8246BB4904F0DDFB8146F6
:101D4000BA4904F00FFC8046204604F0D3FD41461A
:101D5000009004F0D1FB8346B44904F003FC8246B2
:101D600004F0EFFD1FFA80F94946B14803F02FFB5C
:101D7000284604F0BFFD4146009004F0BDFB8346B9
:101D8000AA4904F0EFFB824604F0DBFD1FFA80F95C
:101D90004946A74803F019FB304604F0ABFD414625
:101DA000009004F0A9FB8346A04904F0DBFB8246C7
:101DB00004F0C7FD1FFA80F949469D4803F003FB74
:101DC000BDE8F88F10B5044614B1012C12D108E01B
:101DD00098490C7000231A4619461846FFF7A2FFCF
:101DE00013E094490C7064231A4619461846FFF70D
:101DF00099FF0AE08F48007818B10020FFF7E2FF52
:101E000002E00120FFF7DEFF00BF00BF10BD1CB5E0
:101E10000121102002F0FEFE4FF428500090022015
:101E20008DF8040003208DF8050000208DF80600D1
:101E30008DF807006946804802F092FA01220B21D2
:101E40007D4802F018FB01220D217B4802F013FBB4
:101E500001220921784802F00EFBA8224FF47A7182
:101E6000734801F013FB00220C21714801F091FB33
:101E700001216F4803F042F90120FFF7A3FF1CBDC9
:101E800010B5FFF7C4FFFFF7B3FE10BD10B5044651
:101E90006848007800287DD00020684908706848AC
:101EA00090F90000152802DB00206549087064489D
:101EB00090F9000000EB4000624908566249097839
:101EC000884206D15D480078401C40B25B490870EA
:101ED00020E05B4890F9000000EB400059490856AB
:101EE00059490978884205DD57480078401C564911
:101EF00008700FE0524890F9000000EB4000514993
:101F0000085651490978884204DA4F480078401E43
:101F10004D4908704A4890F9000000EB40004949DB
:101F2000084490F9010049490978884206D143489C
:101F30000078401C40B24149087024E0404890F9C4
:101F4000000000EB40003F49084490F901003F4980
:101F50000978884205DD3D480078401C3B490870FF
:101F600011E0374890F9000000EB40003549084483
:101F700090F9010035490978884204DA334800783D
:101F8000401E324908702E4890F9000000EB4000D6
:101F90002C4900E06CE0084490F902002C490978D3
:101FA000884206D125480078401C40B22349087079
:101FB00024E0234890F9000000EB40002149084448
:101FC00090F9020022490978884205DD204800780E
:101FD000401C1F49087011E0194890F9000000EBFF
:101FE00040001849084490F90200194909788842CC
:101FF00004DA17480078401E154908700F4890F918
:102000000000032828DB0E480078401C40B221E085
:10201000000C0240080200202002002038020020AC
:10202000500200206802002000007A440000C842EC
:10203000000001408F0000200010024094000020AA
:10204000930000205000002090000020920000200B
:10205000910000209A4908709A48007843B29A4843
:10206000007842B29948007841B22046FFF75AFE04
:1020700010BD10B5102002F0EBF800282DD0102173
:10208000934802F0CFF9A0B1012092490870FFF700
:1020900057FD904BD3E90223801A61EB03018D4A6F
:1020A000C2E9040100219160D1600120FFF78AFE9E
:1020B0000DE0002087490870FFF742FD854AC2E91C
:1020C00002010021116151610020FFF77BFE82A017
:1020D00004F096F8102002F0CCF810BD10B50420E2
:1020E00002F0B6F800282DD00421794802F09AF9C0
:1020F000A0B101207B490870FFF722FD794BD3E99D
:102100000223801A61EB0301764AC2E9040100212F
:102110009160D1600120FFF755FE0DE0002071496C
:102120000870FFF70DFD6F4AC2E90201002111613D
:1021300051610020FFF746FE6BA004F061F8042017
:1021400002F097F810BD10B5012002F081F80028C8
:102150002DD001215E4802F065F9A0B1012065494A
:102160000870FFF7EDFC634BD3E90223801A61EBA3
:102170000301604AC2E9040100219160D16001209D
:10218000FFF720FE0DE000205A490870FFF7D8FC49
:10219000584AC2E902010021116151610020FFF794
:1021A00011FE55A004F02CF8012002F062F810BDD9
:1021B00010B5082002F04CF800282DD00821444822
:1021C00002F030F9A0B101204E490870FFF7B8FCC9
:1021D0004C4BD3E90223801A61EB0301494AC2E95F
:1021E000040100219160D1600120FFF7EBFD0DE0BB
:1021F000002044490870FFF7A3FC424AC2E90201EB
:102200000021116151610020FFF7DCFD3EA003F0C9
:10221000F7FF082002F02DF810BD10B5022002F0E3
:1022200017F800282DD00221294802F0FBF8A0B1B0
:10223000012038490870FFF783FC364BD3E90223AD
:10224000801A61EB0301334AC2E904010021916065
:10225000D1600120FFF7B6FD0DE000202D49087088
:10226000FFF76EFC2B4AC2E90201002111615161A6
:102270000020FFF7A7FD28A003F0C2FF022001F015
:10228000F8FF10BD2DE9F04106460F46FFF758FC58
:10229000D6E90232C41A61EB0205D6E90410611ACC
:1022A00075EB000001D2D6E9044500BFE11B75F1D2
:1022B0000000FBD3BDE8F0810146087870470000BC
:1022C0009300002091000020920000209000002048
:1022D000000C024008020020427574746F6E2041A9
:1022E0000000000020020020427574746F6E2043CD
:1022F0000000000038020020427574746F6E2044A4
:102300000000000050020020427574746F6E20427D
:102310000000000068020020427574746F6E204F48
:102320004B000000014600BFEC4A01FB02F000E058
:10233000401E0028FCD1704710B504461021E84823
:1023400002F08AF8E2090121E54802F089F8C4F3B5
:1023500080120221E24802F083F8C4F34012042103
:10236000DF4802F07DF8C4F300120821DC4802F0D7
:1023700077F81021DA4802F071F80520FFF7D2FF54
:102380001021D74802F068F8C4F3C0020121D448F4
:1023900002F066F8C4F380020221D14802F060F82E
:1023A000C4F340020421CE4802F05AF804F00102BE
:1023B0000821CB4802F054F81021C94802F04EF829
:1023C0000120FFF7AFFF10BD1CB50446012110200E
:1023D00002F053FC0F20009002208DF805002CB96C
:1023E00000208DF804008DF8070007E0012C05D1CE
:1023F00001208DF8040000208DF806006946B848D9
:1024000001F0AEFF1CBD70B50020FFF7DDFF4021DD
:10241000B34802F023F82021B14802F01DF8012052
:10242000FFF780FF1021AE4802F016F80121AC48FA
:1024300001F0F8FF04EAC0140221A94801F0F2FFFC
:1024400004EA80140421A64801F0ECFF04EA4014D9
:102450000821A34801F0E6FF04EA00141021A04877
:1024600001F0FCFF0120FFF75DFF10219C4801F007
:10247000F3FF01219A4801F0D5FF05EAC0050221CA
:10248000974801F0CFFF05EA80050421944801F048
:10249000C9FF05EA40050821914801F0C3FF054046
:1024A00010218F4801F0DAFF44EA251070BD1CB5F9
:1024B0000121102002F0AEFB4020009001208DF899
:1024C000040000208DF8060002208DF80500694602
:1024D000834801F045FF2020009001208DF8040082
:1024E00000208DF8060069467D4801F039FF102074
:1024F000009001208DF8040000208DF80600694648
:10250000774801F02DFF0121102002F083FB0F20FE
:10251000009000208DF804008DF8070002208DF84F
:10252000050069466E4801F01BFF1CBD10B500BFD9
:10253000FFF769FF10F0800FFAD110BD10B5044607
:10254000FFF7F4FF4021664801F088FF202164482E
:1025500001F084FF0120FFF737FF2046FFF7ECFE74
:102560000020FFF731FF10BD10B5FFF7DFFF00209F
:10257000FFF72AFF40215A4801F070FF20215848F8
:1025800001F06AFFFFF73FFF04460020FFF71CFF42
:10259000204610BD10B50446FFF7C8FF4021504843
:1025A00001F05AFF20214E4801F058FF0120FFF7AB
:1025B0000BFF2046FFF7C0FE0020FFF705FF10BD10
:1025C00010B5FFF7B3FF0020FFF7FEFE402144489F
:1025D00001F042FF2021424801F03EFFFFF713FFC8
:1025E00004460020FFF7F0FE204610BD70B50646F9
:1025F0000C4636B1012E06D0022E08D0032E0ED185
:1026000009E0E5B20DE004F14000C5B209E004F1D3
:102610001400C5B205E004F15400C5B201E0E5B212
:1026200000BF00BF45F08000FFF788FF0520FFF7DF
:1026300079FE70BD10B50120FFF780FF0520FFF780
:1026400071FE00210846FFF7D1FF0520FFF76AFE63
:1026500010BD10B5FFF72BFF3320FFF76FFF0A20E7
:10266000FFF760FE3220FFF769FF0A20FFF75AFEEE
:102670002820FFF763FF0120FFF760FF0620FFF728
:102680005DFF0C20FFF75AFF0220FFF757FFFFF70F
:10269000D1FF10BD10B50220FFF750FF0520FFF756
:1026A00041FE10BD70B505460E4605B970BD00244B
:1026B00007E0285DFFF76EFF0520FFF733FE601C83
:1026C000C4B2B442F5DB00BFF0E770B504460D4676
:1026D000E0B2FFF75FFF204670BD000040900200AF
:1026E0000010024030B5FA4A1268502A1EDAF84A41
:1026F00013681268521CF64C226000F15002D1544B
:10270000A1B9002223461A6009E00023F04A1468A8
:102710001268521CEE4D2A6000F150021355EC4A2B
:102720001268502AF1DB0022E94B1A6030BD30B547
:1027300085B004460D46E749206C884204D101214A
:10274000480502F09AFA10E0E349206C884204D16F
:102750000121880502F091FA07E0E049206C8842E7
:1027600003D10121C80502F088FA206C01F0B8FEFF
:102770000020ADF808004BF6FF70ADF80A0000200D
:10278000ADF80C004FF48060ADF80E000001ADF81C
:102790001000019501A9206C01F0CBFE0121206CF5
:1027A00001F043FF00208DF8010001208DF80200A8
:1027B0008DF80300C749206C884203D11F208DF893
:1027C00000000EE0C449206C884203D121208DF81E
:1027D000000006E0C149206C884202D148208DF8F3
:1027E0000000684601F049F801224FF4C061206CF6
:1027F00002F016F83020005D012837D13120005D4D
:102800008DF80000684601F038F801221021A06B15
:1028100001F040FCA06B01F0D5FAB149606B086093
:10282000206C10304860002048614FF4806088615F
:102830000020C861086248624FF44030886204207A
:10284000C86203200863002048638863A06B01F01E
:102850005BFB0121480502F0DDF901221021A06B8C
:1028600001F018FC0121206C01F0B7FF207C012849
:102870003AD10121400502F0CDF9607C8DF80000CD
:10288000684600F0FAFF01221021A06901F002FC65
:10289000A06901F097FA924960690860206C1030D5
:1028A0004860002048614FF4806088610020C86162
:1028B000086248624FF4403088620420C8620320F6
:1028C0000863002048638863A06901F01DFB0121B3
:1028D000480502F09FF901221021A06901F0DAFBFE
:1028E0000121206C01F079FF05B030BD2DE9F041E8
:1028F00004460F4615461E4617B1032F20D10FE0A0
:102900007749606B0860206C10304860084685602D
:102910004020C86008460661A06B01F0F5FA10E09F
:102920006F4960690860206C103048600846856017
:102930000020C86008460661A06901F0E5FA00E0E1
:1029400000BF00BFBDE8F08170B50446FFF7F8F89E
:10295000054613E04FF40031206C01F08CFF012894
:1029600001D0012070BDB4F84E60324600232846E5
:102970001946FFF7E9F808B10220F3E7EAE72DE985
:10298000FF5F044616461F46DDE90EABDDE9108504
:102990004FF000092046FFF7D7FF00287DD0002127
:1029A0002046FFF79FFE019820B1012842D003285E
:1029B00074D154E0002084F84C0084F82060277023
:1029C000C4F844A084F848B03020005D88B10128E4
:1029D0002ED1E5622B46424600212046FFF786FFB6
:1029E0000121206C01F04DFE01212046FFF77AFE07
:1029F0001EE0E5620021A162C4F82480894606E059
:102A000018F80910606A00F8091009F10109A945D0
:102A1000F6D30121206C01F034FE01224FF4C06195
:102A2000206C01F0FDFE02212046FFF75BFE00BF97
:102A300000BF58E0002084F84C0084F82060277024
:102A4000C4F844A084F848B00021E1620121206C60
:102A500001F017FE03212046FFF744FE43E0022069
:102A600084F84C0084F820602770C4F844A084F8EF
:102A700048B0207CB0B1012828D1012D00D1022519
:102A80002B46424603212046FFF730FF0121206CF0
:102A900001F0AFFE0421204601E035E022E0FFF71F
:102AA00021FE13E0E5600020A060C4F8048001214D
:102AB000206C01F0E6FD01224FF4C061206C01F0B2
:102AC000AFFE05212046FFF70DFE00BF00BF0AE064
:102AD000980000200054004000580040005C004076
:102AE000C003002000BF00BF06212046FFF7FAFD0B
:102AF0000121206C01F0A5FD07212046FFF7F2FD22
:102B0000012004B0BDE8F09F0020FAE770B504464C
:102B1000206C01F0A3FED54A811A904270D006DCE9
:102B20006FF44031401809D001286AD1AAE0A1F51C
:102B3000802142392DD00229F7D14CE094F84C0085
:102B400020B102280DD0032820D115E094F82010E0
:102B50000022206C01F08DFD08212046FFF7C2FD08
:102B600015E094F820100022206C01F082FD09216C
:102B70002046FFF7B7FD0AE021780122206C01F022
:102B800078FD0A212046FFF7ADFD00E000BF00BF41
:102B9000AAE0636C5A1C62641978206C01F0EDFDA8
:102BA0004820005D401EC1B2482001550B2120463F
:102BB000FFF798FD94F84C0001280BD10021206C00
:102BC00001F05FFD0121206C01F047FD102120463E
:102BD000FFF788FD88E04820005D98B1636C5A1CBF
:102BE00062641978206C01F0C8FD4820005D401E29
:102BF000C1B2482001550C212046FFF773FD40E08B
:102C00004FE070E094F84C0060BB3020005D68B18C
:102C1000012826D10121A06B01F0B0F9042084F82D
:102C20004C000D212046FFF75DFD1AE0D4E90A10A3
:102C300081420ED2656A6A1C62622978206C01F0BA
:102C40009CFDA06A401CA0620E212046FFF74AFDB1
:102C500007E00121206C01F000FD0F212046FFF765
:102C600041FD0EE094F84C0002280AD10121206CAD
:102C700001F0E7FC032084F84C0011212046FFF707
:102C800031FD31E0207C01280AD10121A06901F049
:102C900075F9042084F84C0012212046FFF722FD2C
:102CA00022E0207CF0B9D4E90210401E81420BD111
:102CB0000021206C01F0E5FC0121206C01F0CDFC2D
:102CC00014212046FFF70EFD206C01F058FD6268CC
:102CD000511C61601070A068401CA0601321204648
:102CE000FFF700FD00E000BF00BF70BD10B56049F8
:102CF000604801F0ECF978B15D495E4801F010FAE6
:102D000000215C4801F03AF901215B4801F0A5FC83
:102D100015215A48FFF7E6FC10BD70B50446FEF7D2
:102D20000FFF054611E05649206C01F0A4FD08B1E3
:102D3000012070BDB4F84E60324600232846194683
:102D4000FEF702FF08B10220F3E7ECE710B54D49AA
:102D50004848903001F0BBF9A0B14A49454890304D
:102D600001F0DEF900214348903001F007F94348B3
:102D7000FFF7D3FF0121404801F06FFC16213F48C7
:102D8000FFF7B0FC10BD10B53F493A48303001F0B4
:102D90009EF988B13C493748303001F0C1F9012132
:102DA0003A4801F05AFC00213248303001F0E6F890
:102DB00016213748FFF796FC10BD10B535492D4850
:102DC000A83001F084F9A0B132492A48A83001F0B6
:102DD000A7F900212748A83001F0D0F82C48FFF7C8
:102DE0009CFF0121294801F038FC16212848FFF7F3
:102DF00079FC10BD10B52148FFF788FE10BD10B555
:102E00002348FFF783FE10BD10B523491A4801F08F
:102E100055FD18B12049184801F070FD10BD10B5DE
:102E20001D491A4801F04AFD18B11B49174801F025
:102E300065FD10BD2DE9F04104460F46FEF780FE0A
:102E4000054612E03946206C01F0F3FC012801D15F
:102E5000BDE8F081B4F84E6032460023284619469A
:102E6000FEF772FE08B10220F2E7EBE74000030034
:102E700020800010106002400054004080020020BA
:102E80000400001000802020008020100058004026
:102E900020030020008000280004000170B50446D3
:102EA000FEF74EFE054612E0A06901F0B4F808B93D
:102EB000012070BD6422002328461946FEF744FE17
:102EC00028B10021A06901F059F80020F1E7EBE7F3
:102ED00030B585B004460D46F649206C884204D1D1
:102EE0000121102001F0DAFE2BE0F349206C88422A
:102EF00004D10121480401F0C0FE22E0EF49206C1A
:102F0000884204D10121880401F0B7FE19E0EC49A0
:102F1000206C884204D10121C80401F0AEFE10E00B
:102F2000E849206C884204D10121080501F0A5FE82
:102F300007E0E549206C884203D10121202001F0FF
:102F4000ADFE01950020ADF80800ADF80A00ADF81F
:102F50000C00ADF810000C20ADF80E0001A9206C9B
:102F600002F036FE94F8200000284ED0012860D1EF
:102F7000D649A06B884204D20121480501F04AFEDF
:102F800003E00121880501F045FEA06B00F01AFF67
:102F9000CF49606B08604020C860206C001D48600D
:102FA000002048614FF4806088610020C861086299
:102FB0004FF480704862400288620420C862032097
:102FC0000863002048638863A06B00F09DFF3C20ED
:102FD000005D8DF8000000208DF801008DF80200E2
:102FE00001208DF80300684600F047FC0122102103
:102FF000A06B01F04FF801228021206C02F01DFF30
:103000000021A06B00F0BAFF13E094F844008DF8A3
:10301000000000208DF8020001208DF803006846B2
:1030200000F02BFC002240F22771206C02F00EFF12
:1030300000BF00BF2078002853D0012865D1A349E4
:10304000A069884204D20121480501F0E3FD03E0B4
:103050000121880501F0DEFDA06900F0B3FE9C4966
:10306000606908600020C860206C001D4860002076
:1030700048614FF4806088610020C86108624FF4A5
:1030800080704862400288620420C862032008639E
:10309000002048638863606908608E4888600C205F
:1030A0000861A06900F030FF207F8DF8000000204B
:1030B0008DF801008DF8020001208DF803006846AC
:1030C00000F0DBFB01221021A06900F0E3FF0122E8
:1030D0004021206C02F0B1FE0121A06900F04EFFFA
:1030E00013E094F844008DF8000000208DF80200F1
:1030F00001208DF80300684600F0BFFB002240F27B
:103100002551206C02F0A2FE00BF00BF0121206CFF
:1031100002F0E6FD05B030BD2DE9F04104468846D9
:1031200016461F46069DB8F1000F03D0B8F1010FF7
:1031300064D139E094F8200038B3012832D1022D4F
:1031400002D1302005551EE00021A06B00F016FFD3
:10315000302005555E49606B0860206C001D48609A
:10316000084686604020C86008460761A06B00F0F2
:10317000CBFE01221021A06B00F08CFF0121A06B7F
:1031800000F0FCFE00BF00BF0CE066620021A162FF
:10319000E76230200555012240F22771206C02F0D1
:1031A00055FE00BF00BF29E02078C8B1012823D117
:1031B0000021A06900F0E2FE454960690860206CCA
:1031C000001D48600846866007610020C860A0694D
:1031D00000F09AFE25740121A06900F0CFFE0BE0FB
:1031E00066600020A060E7602574012240F225514E
:1031F000206C02F02BFE00BF00BF00BF00BFBDE887
:10320000F08110B53449354800F061FF18B13249FA
:10321000324800F085FF10BD10B531492F483038D5
:1032200000F055FFC0B32F4890F8300030B10128AE
:103230000CD0022815D003282DD11FE002F0FEFF8C
:1032400027492648303800F06BFF24E0002123484E
:10325000303800F093FE22492048303800F060FFFB
:1032600019E000211D48303800F088FE1C491B4839
:10327000303800F055FF02F0D7FF0CE0002117486E
:10328000303800F07BFE16491448303800F048FF13
:1032900002F0D4FF00BF00BF10BD10B512490F48A7
:1032A000603800F014FF20B10F490C48603800F07E
:1032B00037FF10BD001001400044004000480040AE
:1032C000004C0040005000400014014010640240D7
:1032D0008C0400209C0000200088002088600240B0
:1032E00000800018440400200088001010B540F24F
:1032F00025515A4802F0E5FDA8B1584802F01FFDDB
:10330000C4B2574881688068401C554A9060104696
:1033100040684454104680681146C968884202D308
:1033200000201146886040F227714C4802F0C9FD28
:10333000B0B14B48836A806A401C494A906210468B
:10334000406AC15C454802F0F6FC4548816AC06AA3
:10335000814205D3002240F22771404802F076FDF9
:1033600010BD10B540F225513E4802F0AAFDA8B1AB
:103370003C4802F0E4FCC4B23B4881688068401CD1
:10338000394A90601046406844541046806811469F
:10339000C968884202D300201146886040F2277134
:1033A000304802F08EFDB0B12F48836A806A401C1D
:1033B0002D4A90621046406AC15C2A4802F0BBFC6C
:1033C0002948816AC06A814205D3002240F22771F0
:1033D000244802F03BFD10BD00B589B0182223A19E
:1033E00001A803F01FF80121082001F013FC602060
:1033F000079002208DF8200000208DF822008DF823
:10340000230003208DF8210007A91E4800F0A8FF23
:10341000072206211B4801F02EF807220521194832
:1034200001F029F80D480E490864262081F844006F
:103430004FF00060486114488861102008774FF40D
:1034400016510748FFF744FD0120142301AA00216B
:1034500000900348FFF760FE09B000BD0044004043
:10346000FC03002000480040440400205553415212
:1034700054203220696E697469616C697A656421CF
:10348000200A0000000C024088600240FEB504469D
:103490000E461546E748844204D10121084601F052
:1034A000FDFB66E0B4F1804F04D10121084601F034
:1034B000E4FB5EE0E048844204D10121022001F0F7
:1034C000DCFB56E0DD48844204D10121042001F0F8
:1034D000D4FB4EE0DA48844204D10121082001F0F7
:1034E000CCFB46E0D748844204D10121102001F0F2
:1034F000C4FB3EE0D448844204D10121202001F0E5
:10350000BCFB36E0D148844204D10121022001F005
:10351000C5FB2EE0CE48844204D10121080401F00D
:10352000BDFB26E0CB48844204D10121480401F0D0
:10353000B5FB1EE0C848844204D10121880401F093
:10354000ADFB16E0C548844204D10121402001F0C2
:1035500094FB0EE0C248844204D10121802001F096
:103560008CFB06E0BF48844203D10121801501F0A5
:1035700084FB701E0190681E80B2ADF80000002030
:10358000ADF80800ADF802006946204601F02DFDB7
:10359000FEBD70B58AB005460C46164605A801F07A
:1035A000DDFE6020ADF814000120ADF8160000200B
:1035B000ADF818000796ADF820000820ADF82200FD
:1035C0000020ADF82400ADF8260018B905A928465A
:1035D00001F0A0FD04F00400042803D105A9284649
:1035E00001F0D1FD04F00800082803D105A9284600
:1035F00001F016FE04F00C000C2803D105A92846A2
:1036000001F074FE8B48854202D09048854210D16B
:1036100001A802F05BF90020ADF808004FF48040EB
:10362000ADF810000011ADF8060001A9284602F01F
:103630003DF90AB070BDF0B587B004460E46174696
:103640007C48844201D11B252BE0B4F1804F01D18D
:103650001C2526E07848844201D11D2521E07748C9
:10366000844201D11E251CE07548844201D13225D7
:1036700017E07448844201D1362512E07248844232
:1036800001D137250DE07148844201D12E2508E093
:103690006E48844201D12E2503E06D48844200D15A
:1036A0001825E8B28DF8180000208DF819000120C7
:1036B0008DF81A008DF81B0006A800F0DEF8002037
:1036C000ADF804000120ADF806000020ADF81000B0
:1036D000039740B901A9204601F01CFD01220221F7
:1036E000204602F023F906F00400042808D101A9BD
:1036F000204601F048FD01220421204602F016F97F
:1037000006F00800082808D101A9204601F088FD2C
:1037100001220821204602F009F906F00C000C28CD
:1037200008D101A9204601F0E1FD01221021204627
:1037300002F0FCF807B0F0BD704770477047704763
:1037400070477047704710B50221404802F005F9F4
:1037500090B102213D4802F011F9FEF724FA3B48EE
:1037600002F098F8404908800846008842F210713B
:103770000144364801F027FE0421344802F0EDF8F8
:1037800080B10421314802F0F9F8FEF710FA2F4811
:1037900002F083F834490880084601880A312B4832
:1037A00001F013FE0821294802F0D7F888B108215A
:1037B000264802F0E3F8FEF703FA244802F070F816
:1037C000294908800846018801F5FA711F4801F06F
:1037D000FEFD10BD10B502211D4802F0BEF880B1FB
:1037E00002211B4802F0CAF8FDF791FD184802F0CB
:1037F00051F81E490880084601880A31144801F032
:10380000E2FD0421124802F0A8F890B1042110480A
:1038100002F0B4F8FDF785FD0D4802F03EF81349BB
:103820000880084600884CF250310144084801F0F5
:10383000CCFD10BD00000140000400400008004025
:10384000000C004000100040001400400004014043
:103850000040014000440140004801400018004081
:10386000001C004000200040AE000020B0000020FE
:1038700033490143334A1160704770B5002100237A
:103880000F22C47824B32F4C246804F4E064C4F5F8
:10389000E064C4F30721C1F10404E3B20A414478AF
:1038A0009C40E1B28478144021430C07210E264C41
:1038B00005786155047804F01F050124AC400578B3
:1038C0006D114FF0E02606EB8505C5F8004109E0D3
:1038D000047804F01F040125A5401C4C06787611DD
:1038E00044F8265070BD1A4A0A400243154B1B1F6C
:1038F0001A60704739B1134A121D12680243114B06
:103900001B1D1A6006E00F4A121D126882430D4B00
:103910001B1D1A607047042808D14FF0E021096987
:1039200041F004014FF0E022116107E04FF0E02187
:10393000096921F004014FF0E02211617047000095
:103940000000FA050CED00E000E400E080E100E09A
:1039500080FFFF1F10B50121080201F007FA0021C6
:103960004FF4807001F002FA10BD30B5024600201D
:1039700000235068F84C20400D790C6844EA052477
:10398000204350609068F54C2040D1E903542C430B
:103990008D682C434D7944EA450420439060D06AF9
:1039A00020F470000C7D641EE4B2234340EA03500F
:1039B000D06230BD00210160017141718160C16040
:1039C00001610121017570470021E54A1168E54A4E
:1039D00001EA0201D0E9002342EA0302836842EAD5
:1039E0000302C36842EA030242EA0101DE4AC2F866
:1039F000041370470021016041608160C16070471D
:103A000021B1826842F00102826003E0826822F004
:103A10000102826070470A4600214168D34B194079
:103A20001143416070474162826270470A4600213B
:103A3000416821F01F0111434160704738B1C84906
:103A4000096841F40001C84AC2F8041306E0C449F9
:103A5000096821F40001C44AC2F80413704738B160
:103A6000BF49096841F48001BF4AC2F8041306E067
:103A7000BB49096821F48001BB4AC2F804137047AE
:103A8000F0B504460D4600200021092D11DDE06847
:103A9000A5F10A0606EB4607072606FA07F1884352
:103AA000A5F10A0606EB460603FA06F10843E060B4
:103AB0000CE0206905EB4507072606FA07F1884365
:103AC00005EB450603FA06F108432061072A0FDAE1
:103AD000606B561E06EB86071F2606FA07F1884321
:103AE000561E06EB860605FA06F10843606322E0DF
:103AF0000D2A0FDA206BD61F06EB86071F2606FA63
:103B000007F18843D61F06EB860605FA06F108433F
:103B1000206310E0E06AA2F10D0606EB86071F267F
:103B200006FA07F18843A2F10D0606EB860605FAB0
:103B300006F10843E062F0BD816841F08041816098
:103B40007047014600208A6812F4800F01D00120DE
:103B500000E00020704721B1826842F480628260F8
:103B600003E0826822F480628260704721B182683B
:103B700042F00202826003E0826822F00202826068
:103B8000704710B50A4600210023416821F46041C6
:103B9000531E41EA4331416010BD21B1426842F4F5
:103BA0000062426003E0426822F4006242607047B3
:103BB0000146C86C80B270476D480068704721B1FB
:103BC000826842F48072826003E0826822F480722C
:103BD0008260704721B1826842F40072826003E023
:103BE000826822F400728260704738B15C490968CB
:103BF00041F400515C4AC2F8041306E058490968D0
:103C000021F40051584AC2F804137047F0B5044635
:103C10001546002000220026092911DDE068A1F1E7
:103C20000A0707EB470C072707FA0CF29043A1F1AC
:103C30000A0707EB470703FA07F21043E0600CE0BE
:103C4000206901EB410C072707FA0CF2904301EBC6
:103C5000410703FA07F210432061A06BC0F301563D
:103C6000EF1C06F1010CA7EB0C0707EB870C1F27D5
:103C700007FA0CF29043EF1C06F1010CA7EB0C07BE
:103C800007EB870701FA07F21043A063F0BD10B5F8
:103C90000A4600210023816B21F44011531E41EAA2
:103CA0000351816310BD08B5002300930090009B71
:103CB0000B440093009B1A6008BD0A4600218168EE
:103CC00021F470211143816070470A460021816808
:103CD00021F44011114381607047816841F48001F3
:103CE00081607047014600208A6812F4800F01D07D
:103CF000012000E00020704721B1426842F4806258
:103D0000426003E0426822F480624260704721B161
:103D1000426842F48052426003E0426822F48052DA
:103D20004260704708B5024600200090009201F101
:103D30002800009B184400900098006880B208BDDD
:103D400010B50B460021D9B2012404FA01F18AB161
:103D500044680C43446010E0FFFEFFFCFDF7FFC029
:103D600004230140E030FCFF00200140FFFD3FFF45
:103D70000823014044688C43446010BD0246002083
:103D800013680B4201D0012000E000207047CA43B5
:103D90000260704770B502460020002300240B1219
:103DA000556801268E4005EA060415681D4202D0BA
:103DB0000CB1012000E0002070BD00220A12D343A4
:103DC00003607047016821F001010160002101607A
:103DD00041608160C160016121214161DA4988420D
:103DE00004D13D21D84A103A91608CE0D64918316F
:103DF000884205D14FF47461D34A103A916082E051
:103E0000D1493031884205D14FF47411CE4A103A6D
:103E1000916078E0CC494831884205D14FF0746117
:103E2000C94A103A91606EE0C7496031884204D1B6
:103E3000C649C54A103AD16065E0C3497831884225
:103E400004D1C349C04A103AD1605CE0BE49903108
:103E5000884204D1BF49BC4A103AD16053E0BA4904
:103E6000A831884205D14FF03D51B74A103AD16090
:103E700049E0B949884204D13D21B74A083A116066
:103E800041E0B5491831884205D14FF47461B24A16
:103E9000083A116037E0B0493031884205D14FF41B
:103EA0007411AD4A083A11602DE0AB49483188429F
:103EB00005D14FF07461A84A083A116023E0A64981
:103EC0006031884204D1A149A34A121F11601AE04F
:103ED000A1497831884204D19D499F4A121F11603F
:103EE00011E09D499031884204D19A499A4A121FA3
:103EF000116008E09849A831884204D14FF03D5143
:103F0000954A121F1160704710B500220268934B4A
:103F10001A40CC680B6823434C6923438C692343C4
:103F2000CC6923430C6A23434C6A23438C6A2343A2
:103F30004C6B23438C6B23431A430260426922F08B
:103F40000702D1E90B3423431A4342610B694360F2
:103F50004B6883608B68C36010BD002101604160C5
:103F60008160C160016141618161C1610162416241
:103F70008162C162016341638163704721B102685C
:103F800042F00102026003E0026822F001020260D6
:103F9000704721B1026842F40042026003E0026807
:103FA00022F400420260704721B1026842F0200210
:103FB000026003E0026822F0200202607047416064
:103FC00070470146486880B2704722B1036843F4E5
:103FD0000023036003E0036823F40023036001610E
:103FE000704721B1026842F48022026003E0026857
:103FF00022F48022026070470AB1016100E0C160D2
:104000007047014600200A6812F4002F01D00120F9
:1040100000E000207047014600200A6812F0010FFE
:1040200001D0012000E000207047014600204A69CD
:1040300002F03800704730B503460A4600200024DD
:10404000454DAB4202D24049103901E04249103996
:1040500012F0005F01D04C6800E00C68404D2C402D
:10406000144201D0012000E0002030BD02463A4B4E
:104070009A4202D23448103801E03748103811F023
:10408000005F03D0364B0B40C36002E0344B0B4063
:104090008360704710B511F0800F09D022B14369D9
:1040A00043F08003436103E0436923F080034361ED
:1040B00080290BD02AB1036801F01E04234303605A
:1040C00004E0036801F01E04A343036010BD70B553
:1040D00002460020002400251F4EB24202D21A4B95
:1040E000103B01E01C4B103B1E4E314206D01E26F9
:1040F00006EAD124166806EA040502E0566906F0CD
:10410000800511F0005F01D05C6800E01C68144E6F
:1041100034400C4202D00DB1012000E0002070BDFF
:1041200002460D4B9A4202D20748103801E00A4875
:10413000103811F0005F03D0094B0B40C36002E060
:10414000074B0B4083607047106002403D00002029
:10415000400F002000003D20106402403F801CF012
:104160007D0F7D0F3C0F3C0F002044490860091D66
:104170000860091D0860091D086041483F49143165
:104180000860704700213D498279002A3AD00A46EA
:10419000126803689A430B461A600A1D1268036886
:1041A0009A430B1D1A60027911440A6803681A4386
:1041B0000A60324A0832126803689A432F4B083368
:1041C0001A601A1D126803689A432C4B0C331A604C
:1041D0004279102A0ED11A1F126803681A43274B1E
:1041E00008331A601A1D126803681A43234B0C33F4
:1041F0001A600DE02149427911440A6803681A43A4
:104200000A6005E0027911440A6803689A430A606B
:1042100070470021016001710C2141710021817101
:1042200070471649103109680143144A1032116071
:10423000704701460020114A143212680A4201D028
:10424000012000E0002070470C49143108607047DD
:10425000014600200022094B1B6803EA0102074BBC
:1042600014331B680B4202D00AB1012000E0002089
:10427000704702491431086070470000003C01405B
:10428000FFFF7F0010B504468C48844208D101210D
:10429000084600F014FD0021012000F010FD5EE052
:1042A0008748844208D10121022000F008FD002146
:1042B000022000F004FD52E08248844208D101212E
:1042C000042000F0FCFC0021042000F0F8FC46E093
:1042D0007D48844208D10121082000F0F0FC002133
:1042E000082000F0ECFC3AE07848844208D1012133
:1042F000102000F0E4FC0021102000F0E0FC2EE093
:104300007348844208D10121202000F0D8FC00210C
:10431000202000F0D4FC22E06E48844208D1012124
:10432000402000F0CCFC0021402000F0C8FC16E04A
:104330006948844208D10121802000F0C0FC00219E
:10434000802000F0BCFC0AE06448844207D10121CF
:10435000801500F0B4FC0021A01500F0B0FC10BDE9
:10436000F0B50A4600210023002400BF3DE00125EE
:1043700005FA01F3156805EA03049C4234D1056887
:104380004F000326BE40B543056015794E00B54089
:104390000668354305601579012D02D01579022D87
:1043A00016D185684F000326BE40B5438560557918
:1043B0004E00B540866835438560456801268E40CD
:1043C000B5434560456896798E40B6B23543456041
:1043D000C5684F000326BE40B543C560D5794E0081
:1043E000B540C6683543C560491C1029BFD3F0BD30
:1043F0004FF6FF7101600021017141718171C1713E
:10440000704708B54FF480320092009A0A43009238
:10441000009AC261C161009AC261C2690092C26918
:10442000009208BD0246002013690B4201D0012012
:1044300000E0002070470146086980B270470246DC
:10444000002053690B4201D0012000E0002070479A
:104450000146486980B270470183704741837047C5
:104460000AB1018300E041837047416170474269AE
:104470004A4042617047F0B5002300244D07ED0E1D
:1044800002FA05F3CE1000F1200555F826504E072C
:10449000F70E0F26BE40B543CF1000F1200646F8B8
:1044A0002750CE1000F1200555F8265045EA0304A8
:1044B000CE1000F1200545F82640F0BD0000024076
:1044C0000004024000080240000C024000100240BC
:1044D0000014024000180240001C0240002002406C
:1044E00010B50446FE48844209D10121480500F078
:1044F0002CFC00214FF4001000F027FC18E0F948D4
:10450000844209D10121880500F01FFC00214FF4ED
:10451000800000F01AFC0BE0F348844208D101212E
:10452000C80500F012FC00214FF4000000F00DFC63
:1045300010BD2DE9FF4704460D460026B14604276D
:10454000DFF8A883A6884FF6C0700640684600F0E2
:10455000CCFADDF80880E648B8FBF0F01FFA80F9E5
:1045600046EA0906A68020884FF6FE7108402080A2
:104570000026E049286888420CD828684000B8FB2B
:10458000F0F087B2042F00DA04273E4309F101005E
:10459000208427E0E888A0F53F41FF3906D128684C
:1045A00000EB4000B8FBF0F087B209E0286800EBB0
:1045B000C00101EB0010B8FBF0F087B247F4804770
:1045C0003805000D01D147F0010747F400400643CC
:1045D0004FF4967009FB00F04FF47A7190FBF1F004
:1045E000401C2084A683208840F00100208026887B
:1045F0004FF6F5300640A8886989084306432680AF
:10460000A889298908432081BDE8FF8741F28831C4
:104610000160002181804BF6FF71C1800021018182
:1046200041814FF480418181704721B1028842F07D
:104630000102028004E002884FF6FE731A400280F5
:10464000704721B1028842F48072028004E002883F
:104650004FF6FF631A400280704721B1028842F48E
:104660000072028004E002884FF6FF531A40028075
:10467000704712B141F0010101E001F0FE01018239
:10468000704721B1028842F48062028004E002880F
:104690004FF6FF331A40028070470A460021818995
:1046A0004FF60173194002F0FE03194381817047F0
:1046B00021B1828942F00102828104E082894FF6B1
:1046C000FE731A408281704721B1028842F0400295
:1046D000028004E002884FF6BF731A4002807047E0
:1046E00021B1028842F40042028003E00288C2F352
:1046F0000E020280704721B9028842F080020280D7
:1047000004E002884FF67F731A4002807047B1F5CB
:10471000804F05D0828B4BF6FF731A40828303E0F3
:10472000828B42F4804282837047B1F5006F04D1DE
:10473000028842F40062028004E002884FF2FF73B4
:104740001A4002807047B1F5005F04D1028842F43C
:104750000052028004E002884DF6FF731A40028086
:10476000704721B1028842F01002028004E0028802
:104770004FF6EF731A40028070470182704701467E
:10478000088AC0B2704721B1028842F48052028088
:1047900004E002884EF6FF731A4002807047B1F5BC
:1047A000006F04D1028842F40062028004E00288B3
:1047B0004FF2FF731A400280704721B1028842F025
:1047C0002002028004E002884FF6DF731A40028064
:1047D00070470146088B0012704721B1828842F46D
:1047E0000062828004E082884FF2FF731A40828068
:1047F000704721B1828842F48052828004E082882E
:104800004EF6FF731A408280704708B502460020BA
:10481000009000920098084400900098008808BD1D
:104820001AB183880B43838002E083888B438380A3
:10483000704770B502460024002500230020958AA9
:10484000138B1B0445EA030626F07F4404EA0106A5
:104850008E4201D1012000E0002070BD10B501465C
:104860000020002300228B8A0A8B120443EA0204F0
:1048700024F07F4010BD0CB50246002000230193B8
:10488000009300920B0F019321F07F41019B1BB11C
:10489000009B1433009303E0090C009B1833009332
:1048A000009B1B680B4201D0012000E000200CBDE2
:1048B000002221F07F42D3438382704730B5024605
:1048C00000200023948801F0E06504EA154321F0FC
:1048D0007F41948A0C420FD073B101200DE000009B
:1048E0000054004000580040005C004000127A0074
:1048F00040420F00A0860100002030BD002221F0C0
:104900007F42D34383827047FA48006840F0010039
:10491000F84908600020F74908310860F548006848
:10492000F5490840F3490860F448091D0860081F6C
:10493000006820F48020091F08600020ED490C3138
:10494000086070470021EB4A921C117011460870F4
:10495000704710B501460022002300204A11012AA9
:1049600002D1E44C236808E0022A03D1E14C703400
:10497000236802E0DF4C7434236801F01F02012435
:1049800094401C4201D0012000E0002010BD38B549
:10499000002000900024002500BF3120FFF7D9FF40
:1049A00005460098401C00900098B0F5C06F01D0FB
:1049B000002DF2D03120FFF7CCFF08B1012400E038
:1049C0000024204638BD01460020CA4A106820F065
:1049D000F80040EAC10010607047C949086070479C
:1049E0000021C44A703211701170012802D00428CD
:1049F0000AD104E00121BF4A7032117005E005219F
:104A0000BC4A7032117000E000BF00BF7047BD4962
:104A10000860704770B5049C41EA82150126C6EB18
:104A2000530645EA0645054345EA0465B14E361D81
:104A3000356070BDB24908667047820142EA017272
:104A4000AC4B84331A607047AD4988667047AC49F7
:104A5000C864704702460020A64B0833186820F04F
:104A6000EC6042EA01031843A24B08331860704718
:104A7000024600209F4B0833186820F0784042EA35
:104A8000010318439B4B0833186070470146002010
:104A9000984A0832106820F00300084310607047FD
:104AA00094480830006800F00C0070470146002070
:104AB000904A0832106820F0F000084310607047F8
:104AC000014600208B4A0832106820F4E050084369
:104AD0001060704701460020864A0832106820F4B2
:104AE000604040EAC10010607047F0B5002100222C
:104AF00000240225002602237E4F08373F6807F076
:104B00000C0121B1042905D0082937D105E07E4FD9
:104B1000076036E07D4F076033E0764F3F1D3F680A
:104B2000C7F38056734F3F1D3F6807F03F036EB1D8
:104B3000764FB7FBF3F7DFF8BCC10CF1040CDCF8DF
:104B400000C0CCF3881C07FB0CF40CE06E4FB7FBE5
:104B5000F3F7DFF8A0C10CF1040CDCF800C0CCF3D3
:104B6000881C07FB0CF4634F3F1D3F68C7F30147E8
:104B70007F1C7D00B4FBF5F7076002E0624F076021
:104B800000BF00BF5B4F08373F6807F0F00109091D
:104B90005F4F7A5C0768D7404760564F08373F68D9
:104BA00007F4E051890A5A4F7A5C4768D74087601A
:104BB000504F08373F6807F46041490B544F7A5C07
:104BC0004768D740C760F0BD002100F44072B2F5DD
:104BD000407F0AD1474A0832116821F4F8114D4A42
:104BE00002401143434A08321160424A703212684F
:104BF000C0F30B031A433F4B70331A6070474149AF
:104C00004439086070473F4940390860704742495D
:104C10000860704739B1374A303212680243354B69
:104C200030331A6006E0334A303212688243314B27
:104C300030331A60704739B12E4A34321268024359
:104C40002C4B34331A6006E02A4A3432126882430D
:104C5000284B34331A60704739B1264A383212680B
:104C60000243244B38331A6006E0224A3832126875
:104C70008243204B38331A60704739B11D4A4032A5
:104C8000126802431B4B40331A6006E0194A403257
:104C900012688243174B40331A60704739B1154A86
:104CA000443212680243134B44331A6006E0114A3F
:104CB0004432126882430F4B44331A60704739B153
:104CC0000C4A1032126802430A4B10331A6006E095
:104CD000084A103212688243064B10331A6070473C
:104CE000E1B1044A143212680243024B14331A60D1
:104CF00019E0000000380240FFFFF6FE10300024EB
:104D000000004742800E47420024F40000127A005F
:104D1000B2000020FFFCFF0F5C0147425B4A1268B3
:104D200082435A4B1A60704739B1584A121D1268B3
:104D30000243564B1B1D1A6006E0544A121D1268AE
:104D40008243524B1B1D1A60704739B14F4A0C32D7
:104D5000126802434D4B0C331A6006E04B4A0C328A
:104D600012688243494B0C331A60704739B1474A85
:104D7000103212680243454B10331A6006E0434A72
:104D8000103212688243414B10331A60704739B1B8
:104D90003E4A3C32126802433C4B3C331A6006E008
:104DA0003A4A3C3212688243384B3C331A607047AF
:104DB00039B1364A403212680243344B40331A60EC
:104DC00006E0324A403212688243304B40331A6068
:104DD000704739B12D4A4432126802432B4B443399
:104DE0001A6006E0294A443212688243274B443352
:104DF0001A60704739B1254A4C3212680243234B7E
:104E00004C331A6006E0214A4C32126882431F4B31
:104E10004C331A60704739B11C4A50321268024351
:104E20001A4B50331A6006E0184A50321268824317
:104E3000164B50331A60704739B1144AD21F12789A
:104E40000243124BDB1F1A7006E0104AD21F127881
:104E500082430E4BDB1F1A7070470C4860300068AD
:104E600040F08070094960310860704701460020B9
:104E7000064A083A12680A4201D0012000E00020E8
:104E800070470249891F08707047000014380240BB
:104E900010B50446FE48844208D101210846FFF7B8
:104EA00065FF00210120FFF761FF9DE0B4F1804F15
:104EB00008D101210846FFF748FF00210120FFF734
:104EC00044FF91E0F348844208D101210220FFF71A
:104ED0003CFF00210220FFF738FF85E0EE488442C6
:104EE00008D101210420FFF730FF00210420FFF743
:104EF0002CFF79E0E948844208D101210820FFF71E
:104F000024FF00210820FFF720FF6DE0E4488442E1
:104F100008D101211020FFF718FF00211020FFF712
:104F200014FF61E0DF48844208D101212020FFF70F
:104F30000CFF00212020FFF708FF55E0DA488442EB
:104F400008D101210220FFF711FF00210220FFF705
:104F50000DFF49E0D548844209D101210804FFF73B
:104F600005FF00214FF48030FFF700FF3CE0D04800
:104F7000844209D101214804FFF7F8FE00214FF4D3
:104F80000030FFF7F3FE2FE0CA48844209D1012127
:104F90008804FFF7EBFE00214FF48020FFF7E6FEC8
:104FA00022E0C548844208D101214020FFF7CDFE10
:104FB00000214020FFF7C9FE16E0C048844208D116
:104FC00001218020FFF7C1FE00218020FFF7BDFEF8
:104FD0000AE0BB48844207D101218015FFF7B5FEE6
:104FE0000021A015FFF7B1FE10BD00220288A84BDA
:104FF00098420ED0AC4B98420BD0B0F1804F08D005
:10500000A44B984205D0A44B984202D0A34B98429F
:1050100004D14FF68F731A404B881A43A04B984225
:1050200007D0A04B984204D04FF6FF431A400B899B
:105030001A4302804B68C3620B880385944B9842E5
:1050400002D0994B984201D18B7A03860123838247
:1050500070474FF0FF3141600021018001814180A4
:10506000817270470185828270470A46002101885B
:105070004FF68F73194011430180704741627047AA
:10508000C16270470146486A70470146088D704703
:1050900021B1028842F00202028004E002884FF649
:1050A000FD731A400280704721B1028842F0040269
:1050B000028004E002884FF6FB731A4002807047BA
:1050C00021B1028842F08002028004E002884FF69B
:1050D0007F731A400280704702884FF6F7731A40B8
:1050E000028002880A430280704702884FF6FF431D
:1050F0001A40028002880A430280704721B1028868
:1051000042F00102028004E002884FF6FE731A406A
:105110000280704770B5002400220023058C4FF6F2
:10512000FE7635400584028C8388048B4FF68F759C
:105130002C40B51E2C400D882C43751E2A408D89AD
:105140002A434D882A43524DA84202D0564DA842C8
:1051500013D14FF6F7752A40CD892A434FF6FB75D8
:105160002A408D882A434FF6FF652B404FF6FF55A6
:105170002B400D8A2B434D8A2B43838004838D68FB
:105180004563028470BD70B5002400220023058CA5
:105190004FF6EF7635400584028C8388048B48F601
:1051A000FF752C404FF6FF452C400D884FF6FF76DB
:1051B00006EA05252C434FF6DF752A408D8906EA5D
:1051C00005152A434D8806EA05152A43304DA842A5
:1051D00002D0354DA8421DD14FF67F752A40CD89AA
:1051E0004FF6FF7606EA05152A434FF6BF752A40AB
:1051F0008D8806EA05152A434FF6FF352B404FF2FE
:10520000FF752B400D8A06EA85052B434D8A06EA79
:1052100085052B43838004838D688563028470BD7C
:1052200070B5002400220023058C4FF6FF66354040
:105230000584028C8388848B4FF68F752C404FF643
:10524000FC752C400D882C434FF6FF552A408D8964
:105250004FF6FF7606EA05252A434D8806EA05251E
:105260002A430B4DA84202D00F4DA84238D14FF22D
:10527000FF752A40CD894FF6FF7606EA05252A43B9
:105280004FF6FF352A408D8806EA05252A4319E0A6
:10529000000001400004004000080040000C0040F5
:1052A0000010004000140040000401400040014094
:1052B000004401400048014000180040001C00402C
:1052C000002000404EF6FF752B404DF6FF752B4039
:1052D0000D8A06EA05152B434D8A06EA05152B4370
:1052E000838084838D68C563028470BD70B500229D
:1052F00000230024058C4EF6FF7635400584038C90
:105300008488828B48F6FF752A404FF6FF452A4075
:105310000D884FF6FF7606EA05252A434DF6FF7500
:105320002B408D8906EA05352B434D8806EA053565
:105330002B43FE4DA84202D0FD4DA84208D14BF6AA
:10534000FF752C400D8A4FF6FF7606EA85152C4333
:10535000848082838D680564038470BD0021018090
:105360004180818081608181C18101824182704759
:1053700070B50346002000241846183001258D40E2
:10538000ACB21D8CA5431D8409B108290AD100EBDC
:10539000610005684FF68F76354005600568154356
:1053A00005600FE00D1FC5F34E052844056848F65B
:1053B000FF763540056005684FF6FF7606EA02265F
:1053C0003543056070BD4163704781637047C163B9
:1053D0007047016470470A460021018B4FF68F73B6
:1053E00019401143018370470A460021018B48F69A
:1053F000FF7319404FF6FF7303EA02231943018339
:1054000070470A460021818B4FF68F731940114374
:10541000818370470A460021818B48F6FF7319404B
:105420004FF6FF7303EA02231943818370470A464C
:105430000021018B4FF6F773194011430183704728
:105440000A460021018B4FF2FF7319404FF6FF739C
:1054500003EA02231943018370470A460021818B26
:105460004FF6F77319401143818370470A460021B4
:10547000818B4FF2FF7319404FF6FF7303EA02234B
:105480001943818370470A460021018B4FF6FB7355
:1054900019401143018370470A460021018B4FF6E2
:1054A000FF3319404FF6FF7303EA022319430183C8
:1054B00070470A460021818B4FF6FB731940114358
:1054C000818370470A460021818B4FF6FF331940D4
:1054D0004FF6FF7303EA02231943818370470A469C
:1054E0000021018B4FF67F731940114301837047F0
:1054F0000A460021018BC1F30E014FF6FF7303EA48
:1055000002231943018370470A460021818B4FF61D
:105510007F7319401143818370470A460021818BB4
:10552000C1F30E014FF6FF7303EA0223194381838F
:1055300070470A460021018C4FF6FD731940114354
:10554000018470470A460021018C4FF6F773194019
:105550001143018470470A460021018C4FF6DF7326
:1055600019404FF6FF7303EA021319430184704791
:105570000A460021018C4FF67F7319404FF6FF73E6
:1055800003EA02131943018470470A460021018C83
:105590004FF6FF5319404FF6FF7303EA02231943F6
:1055A000018470470A460021018C4FF2FF731940B5
:1055B0004FF6FF7303EA02231943018470470A463A
:1055C0000021018C4DF6FF7319404FF6FF7303EA7B
:1055D000023319430184704730B5002301248C4005
:1055E000A3B2048C9C430484048C02FA01F5ADB28E
:1055F0002C43048430BD30B5002304248C40A3B276
:10560000048C9C430484048C02FA01F5ADB22C4353
:10561000048430BD828B4FF2FF331A408283828B29
:105620004FF6FF7303EA01231A4382837047F0B5F4
:105630000C461546002100220026078C4EF6FF7C02
:1056400007EA0C070784818B028C4FF6FF7707EA85
:10565000043640F6FF4739404FF6FF7707EA052743
:1056600039434FF6FF7707EA0337394345F6FF77AB
:105670003A4046F480573A4381830284F0BD828BDE
:105680004FF6F3731A408283828B0A4382837047FA
:10569000F0B50C461546002100220026078C4FF677
:1056A000FF6C07EA0C070784818B028C4FF6FF77AB
:1056B00007EA04264FF60C7739404FF6FF7707EAE2
:1056C00003172F4339434FF2FF573A4046F4807790
:1056D0003A4381830284F0BD028B4FF2FF331A40BC
:1056E0000283028B4FF6FF7303EA01231A430283FE
:1056F0007047F0B50C461546002100220026078CA5
:105700004FF6EF7C07EA0C070784018B028C4FF6FB
:10571000FF7707EA041640F6FF4739404FF6FF7758
:1057200007EA033739434FF6FF7703E000000140F3
:105730000004014007EA052739434FF65F773A40F6
:1057400046F010073A4301830284F0BD028B4FF606
:10575000F3731A400283028B0A4302837047F0B549
:105760000C46154600210022068C4FF6FE773E407F
:105770000684018B028C4FF60C7631407E1C06EAC3
:1057800003162E4331434FF6F576324044F00106BE
:10579000324301830284F0BD70B505460C46208873
:1057A00050B92389A28861882846FFF7D8FFE1888D
:1057B0002846FFF7CBFF25E0208804280AD123895B
:1057C000A28861882846FFF794FFE1882846FFF702
:1057D00083FF17E0208808280AD12389A2886188DE
:1057E0002846FFF755FFE1882846FFF748FF09E004
:1057F0002389A28861882846FFF719FFE188284697
:10580000FFF708FF70BD00210180418001218180E8
:105810000021C180018170472DE9F04105460C4609
:1058200000260127608808B9022600E00026A0882B
:10583000012801D1022700E001272088A0B923898F
:10584000A28861882846FFF78AFFE1882846FFF78B
:105850007DFF23893A4631462846FFF74AFFE18813
:105860002846FFF739FF13E02389A288618828467C
:10587000FFF73FFFE1882846FFF72EFF23893A46CE
:1058800031462846FFF76BFFE1882846FFF75EFFA9
:10589000BDE8F0810146486B70470146886B704750
:1058A0000146C86B70470146086C70470A884B88F0
:1058B0001A438B881A43CB881A430B891A434B89A6
:1058C0001A438B891A43A0F84420704700210180B5
:1058D00041808180C180018141818181704731B1E6
:1058E000B0F8442042F40042A0F8442005E0B0F8AB
:1058F0004420C2F30E02A0F84420704721B18288F0
:1059000042F00402828004E082884FF6FB731A4062
:105910008280704721B1828842F00102828004E0D7
:1059200082884FF6FE731A40828070471AB18389CD
:105930000B43838102E083898B438381704781829B
:10594000704702460020138A0B4201D0012000E07C
:1059500000207047CA430282704730B502460020DB
:1059600000230024158A05EA0103958905EA01044C
:1059700013B10CB1012000E0002030BDCA43028207
:10598000704741EA0203A0F8483070471AB1838992
:105990000B43838102E083898B438381704721B16C
:1059A000828842F00802828004E082884FF6F77312
:1059B0001A408280704701894FF6F87211400181C8
:1059C00070470A46002101894FF68F731940114331
:1059D0000181704730B504460D4629462046FFF741
:1059E000F0FF208940F00700208130BD2DE9F04113
:1059F00004460D4616461F46602D06D13B46012241
:105A000031462046FFF775FE05E03B460122314650
:105A10002046FFF7A4FE29462046FFF7D2FF208943
:105A200040F007002081BDE8F08130B50C46002130
:105A30000189C9B24FF6FF7505EA032515432543D1
:105A40002943018130BD2DE9F04105460E46174638
:105A50009846002443463A4631462846FFF7E5FF7C
:105A60002C894FF6F870044044F007044FF68F700D
:105A7000044044F070042C81BDE8F081F0B5044688
:105A80000D4616461F463B46324629462046FFF73E
:105A9000CCFF208940F480402081F0BD82884FF601
:105AA0008F731A40828082880A43828070470289FD
:105AB0004FF6F8731A40028102890A430281704747
:105AC00002894FF67F731A40028102890A430281DC
:105AD0007047F0B50C4615461E46002100220023F3
